:100000000C946D000C9495000C9495000C945D0478
:100010000C945D040C945D040C9495000C94950074
:100020000C9495000C9495000C9495000C949500FC
:100030000C9495000C9495000C9495000C949500EC
:100040000C9403090C9495000C942B040C94050457
:100050000C9495000C9495000C9495000C949500CC
:100060000C944F060C9495007B01810187018D0152
:10007000930199019F01DA02E102E802EF02F60220
:100080000D03FD020D0304030000000024002700FF
:100090002A0000000000250028002B0004040404AE
:1000A0000404040402020202020203030303030322
:1000B00001020408102040800102040810200102FF
:1000C00004081020000000080002010000030407DB
:1000D0000000000000000000210B11241FBECFEF24
:1000E000D8E0DEBFCDBF11E0A0E0B1E0E4E1FEE189
:1000F00002C005900D92AA33B107D9F722E0AAE316
:10010000B1E001C01D92A53EB207E1F710E0CDE6D7
:10011000D0E004C02197FE010E94640CCC36D107C8
:10012000C9F70E944D090C94080F0C940000FC01C3
:10013000918D828D981761F0828DDF01A80FB11D1E
:100140005D968C91928D9F5F9F73928F90E0089542
:100150008FEF9FEF0895FC01918D828D981731F0FC
:10016000828DE80FF11D858D90E008958FEF9FEF50
:100170000895FC01918D228D892F90E0805C9F4F26
:10018000821B91098F73992708958BEA91E00E9451
:10019000B90021E0892B09F420E0822F0895FC01A9
:1001A000848DDF01A80FB11DA35ABF4F2C91848D00
:1001B00090E001968F739927848FA689B7892C9335
:1001C000A089B1898C9180648C93938D848D9813D0
:1001D00006C00288F389E02D80818F7D8083089599
:1001E000EF92FF920F931F93CF93DF93EC0181E087
:1001F000888F9B8D8C8D981305C0E889F989808143
:1002000085FD24C0F62E0B8D10E00F5F1F4F0F737E
:100210001127E02E8C8DE8120CC00FB607FCFACF28
:10022000E889F989808185FFF5CFCE010E94CF0052
:10023000F1CF8B8DFE01E80FF11DE35AFF4FF082E5
:100240000B8FEA89FB898081806207C0EE89FF8974
:100250006083E889F98980818064808381E090E00F
:10026000DF91CF911F910F91FF90EF900895CF9361
:10027000DF93EC01888D8823C9F0EA89FB898081AE
:1002800085FD05C0A889B9898C9186FD0FC00FB680
:1002900007FCF5CF808185FFF2CFA889B9898C91C1
:1002A00085FFEDCFCE010E94CF00E7CFDF91CF9148
:1002B000089580E090E0892B29F00E94C50081110B
:1002C0000C9400000895CF93DF934770552766275D
:1002D0007727FA013197EC01A881B981E730F10560
:1002E00020F4EC5CFF4F0C94640C1496ED91FC919F
:1002F000159761E029C01496ED91FC91159765E082
:1003000023C01496ED91FC91159764E01DC01496DE
:10031000ED91FC91159766E017C01496ED91FC9154
:10032000159762E011C01496ED91FC9115976AE063
:100330000BC01496ED91FC91159768E005C01496DA
:10034000ED91FC91159769E0DF91CF910994CF93DE
:10035000DF93EC01CB01BA0126E030E040E050E051
:100360000E94450C623071058105910559F18CF4AC
:100370006115710581059105F1F061307105810507
:100380009105C1F5E881F9810480F581E02D65E0F2
:100390002DC0643071058105910511F1D4F06530EF
:1003A00071058105910531F5E881F9810480F581B8
:1003B000E02D66E01BC0E881F9810480F581E02D25
:1003C00064E014C0E881F9810480F581E02D61E0EA
:1003D0000DC0E881F9810480F581E02D63E006C05D
:1003E000E881F9810480F581E02D62E0CE01DF91A2
:1003F000CF910994DF91CF910895437055276627D7
:100400007727DC01ED91FC910480F581E02D4230ED
:1004100051056105710571F04330510561057105A4
:1004200059F0413051056105710511F065E005C0D5
:1004300066E003C06AE001C069E00994CF93DF93EE
:10044000EC01CB01BA0123E030E040E050E00E9433
:10045000450C613071058105910581F062307105AF
:100460008105910591F0672B682B692BC1F4E88118
:10047000F9810480F581E02D64E00DC0E881F98107
:100480000480F581E02D61E006C0E881F9810480F7
:10049000F581E02D62E0CE01DF91CF910994DF91EB
:1004A000CF9108954370552766277727DC01ED919A
:1004B000FC910480F581E02D423051056105710504
:1004C00071F0433051056105710559F04130510516
:1004D0006105710511F062E005C063E003C061E0F1
:1004E00001C060E009940F931F93CF93DF93EC0159
:1004F000E881F9810480F581E02D8C010D5B1F4FAF
:10050000D8018C91811102C060E001C062E0CE018F
:100510000995E881F9810480F581E02DD8018C915D
:10052000811102C061E001C063E0CE010995EBA535
:10053000FCA5E230F10538F0EE0FFF1FEE0FFF1FB4
:1005400035973197F1F7E881F9810480F581E02D45
:10055000D8018C91811102C060E001C062E0CE013F
:10056000DF91CF911F910F910994CF93DF93EC010D
:1005700020E030E0A9016B897C898D899E890E94E9
:10058000360E18161CF4EFA5F8A902C0E9A9FAA9BD
:10059000DF91CF9109940F931F93DC011296EC9198
:1005A0000E2F10E009301105C0F5F801E55CFF4F92
:1005B0000C94640CDC01ED91FC910084F185E02D3C
:1005C00029C0DC01ED91FC910284F385E02D22C06D
:1005D000DC01ED91FC910484F585E02D1BC0DC016C
:1005E000ED91FC910684F785E02D14C0DC01ED91BE
:1005F000FC910088F189E02D0DC0DC01ED91FC91AA
:100600000288F389E02D06C0DC01ED91FC9104889D
:10061000F589E02D1F910F9109941F910F91089575
:1006200008958FEF9FEF08958FEF9FEF08958091CA
:10063000A80190E0919581959109089585ED8093A9
:10064000BC008091BC0084FDFCCF10928201089513
:1006500040915C01262F30E0240F311D21323105FD
:10066000DCF4209182012430C9F4FC0180E090E0A8
:10067000861758F430915C012191DC01A65CBE4FD5
:10068000A30FB11D2C930196F3CF80915C01680FED
:1006900060935C0180E0089581E0089582E0089510
:1006A000CF93DF9300D0CDB7DEB7CB01642F498362
:1006B0005A830E9428034981842F5A81952F0F90D5
:1006C0000F90DF91CF910895CF93DF931F92CDB715
:1006D000DEB7698361E0CE0101960E94280381E0C4
:1006E00090E00F90DF91CF9108950E94030FCF9378
:1006F000DF93FC012281222359F1EC0161E0838127
:100700000E94A20861E08C810E94A2088A81843044
:1007100011F0883039F461E08D810E94A20861E017
:100720008E8106C0833011F0863021F461E08D8126
:100730000E94A2088EA58F3F59F061E00E94A20896
:100740006DA581E068278EA5DF91CF910C945608A6
:10075000DF91CF910895CF93DF93FC012281222373
:10076000A9F0EC010190F081E02D0480F581E02DED
:1007700060E009958EA58F3F49F061E00E94A208D4
:100780006DA58EA5DF91CF910C945608DF91CF9186
:100790000895CF92DF92EF92FF920F931F93CF9322
:1007A000DF93FC012281243041F0283031F02330E6
:1007B00031F0263021F012E003C014E001C013E054
:1007C000EC012796E12CF12CC62ED12C01E0C601BC
:1007D0000E2C02C0959587950A94E2F7688180FDFA
:1007E0006027FE01349780810E945608FFEFEF1AC0
:1007F000FF0A2196E11658F3DF91CF911F910F91D7
:10080000FF90EF90DF90CF9008951F920F920FB658
:100810000F9211242F933F934F935F936F937F9386
:100820008F939F93AF93BF93EF93FF938BEA91E0E6
:100830000E94CF00FF91EF91BF91AF919F918F9157
:100840007F916F915F914F913F912F910F900FBECC
:100850000F901F9018951F920F920FB60F921124B0
:100860002F938F939F93EF93FF93E091BB01F091B0
:10087000BC018081E091C101F091C20182FD12C0F2
:1008800090818091C4018F5F8F732091C501821781
:1008900051F0E091C401F0E0E555FE4F958F809353
:1008A000C40101C08081FF91EF919F918F912F91A1
:1008B0000F900FBE0F901F9018951F920F920FB6BA
:1008C0000F9211240F900FBE0F901F9018952F922A
:1008D0003F924F925F926F927F928F929F92AF92D0
:1008E000BF92CF92DF92EF92FF920F931F93CF931D
:1008F000DF9300D000D0CDB7DEB71C01FC018784A8
:100900009088A188B28883859485A585B685881A44
:10091000990AAA0ABB0A63897489858996899B0109
:10092000AC010E943B0E6B017C01F101638D748D63
:10093000858D968D9B01AC010E946B0C9B01AC01D7
:10094000C701B6010E94DC0C0E944E0D8114910477
:10095000A104B104A1F462307105810591050CF088
:100960007CC0F10113A214A215A216A2138A148A44
:10097000158A168A13AA14AA15AA16AA03C1F10188
:1009800003A914A925A936A9ED5BFF4F1814190472
:100990001A041B04FCF410161106120613064CF47C
:1009A000681579058A059B054CF52081211155C0F4
:1009B00025C0011511052105310509F44EC0681542
:1009C00079058A059B050CF048C08081882309F4CD
:1009D00044C037C01016110612061306F4F400279F
:1009E00011279801081919092A093B09601771078D
:1009F000820793071CF42081222379F19B01AC012B
:100A000088279927DC01821B930BA40BB50BF101FE
:100A100083AB94ABA5ABB6AB20C001151105210586
:100A20003105D9F0CC24DD247601C818D908EA08AC
:100A3000FB086C157D058E059F057CF48081811176
:100A40000CC030952095109501951F4F2F4F3F4FAB
:100A5000F10103AB14AB25AB36ABF101C3A8D4A8AD
:100A6000E5A8F6A881010D5B1F4FC114D104E10474
:100A7000F10491F487A990ADA1ADB2AD83AF94AF6D
:100A8000A5AFB6AF81E0181419041A041B040CF0CA
:100A900080E0F801808340C0F10183AC94ACA5AC48
:100AA000B6ACA5019401C501B4010E946B0C2B01E9
:100AB0003C01C701B6010E94860D20E030E040E80D
:100AC00050E40E943B0E20E030E040E85FE30E94EB
:100AD0006B0C9B01AC01C301B2010E94DC0C9B01B9
:100AE000AC01C501B4010E946A0C4B015C01F1012B
:100AF000FF9640805180628073809201A3010E9422
:100B0000360E181614F042015301A401B501F1018B
:100B100043AF54AF65AF76AFFFEFCF1ADF0AEF0AEE
:100B2000FF0AF101C3AAD4AAE5AAF6AA23AD34ADFF
:100B300045AD56ADCA01B90129833A834B835C8325
:100B40000E94550DF10163A374A385A396A3298187
:100B50003A814B815C8160E074E284E799E40E9411
:100B6000DC0CF101638B748B858B968BF8012081F3
:100B7000211108C0DC01CB01B058F101838B948BAB
:100B8000A58BB68B0F900F900F900F90DF91CF91A8
:100B90001F910F91FF90EF90DF90CF90BF90AF909B
:100BA0009F908F907F906F905F904F903F902F908D
:100BB00008954F925F926F927F928F929F92AF9221
:100BC000BF92CF92DF92EF92FF92CF93DF93EC012F
:100BD0006A017B018B8C9C8CAD8CBE8C9A01AB0125
:100BE000C501B4010E94D70C882309F449C06BA940
:100BF0007CA98DA99EA90E94860D2B013C01A7010D
:100C00009601C501B4010E94DC0C9B01AC01C3013B
:100C1000B2010E943B0E0E944E0D6BAB7CAB8DABC4
:100C20009EABA701960160E070E080E090E40E9436
:100C3000DC0C0E94AE0E26E53EE04DE25FE30E9432
:100C40003B0E20E034E244E759E40E943B0E6FABD8
:100C500078AF89AF9AAFCB8EDC8EED8EFE8ECE0153
:100C6000DF91CF91FF90EF90DF90CF90BF90AF904A
:100C70009F908F907F906F905F904F900C9467043F
:100C8000DF91CF91FF90EF90DF90CF90BF90AF902A
:100C90009F908F907F906F905F904F9008951F92DC
:100CA0000F920FB60F9211242F933F934F935F93A0
:100CB0006F937F938F939F93AF93BF93EF93FF9324
:100CC0008091B900887F803609F49CC068F588322D
:100CD00009F45BC090F4803109F454C038F48823DF
:100CE00009F4F6C0883009F44DC0F6C0883109F423
:100CF0004CC0803209F45DC0EFC0803409F468C094
:100D000048F4803309F455C0883309F0E5C0809376
:100D10008101D8C0803509F44FC0883509F45DC021
:100D2000883409F0D9C0D6C0883909F4C7C0A8F4FE
:100D3000883709F467C038F4883609F463C080370F
:100D400009F460C0C9C0883809F4B8C0803909F412
:100D50005FC0803809F0C0C05BC0803B09F486C02A
:100D600038F4803A09F466C0883A09F47FC0B4C008
:100D7000803C09F4A7C0883C09F4A4C0883B09F46E
:100D80008AC0AAC08091A70110C09091A60180914D
:100D9000A501981770F5E091A60181E08E0F809370
:100DA000A601F0E0EB57FE4F80818093BB0085ECFD
:100DB00086C0809381018EC0E091A60181E08E0FF4
:100DC0008093A6018091BB00F0E0EB57FE4F80833B
:100DD0009091A6018091A5016EC0E091A60181E0ED
:100DE0008E0F8093A6018091BB00F0E0EB57FE4F81
:100DF00080838091840181116DC081E080938301A3
:100E000084EA61C083E08093820110928001CFCF99
:100E100080918001803208F051C0E091800181E032
:100E20008E0F809380018091BB00F0E0E05AFE4F6E
:100E30008083BDCF85EC8093BC00109282018091AD
:100E40008001803230F4E0918001F0E0E05AFE4F02
:100E500010826091800170E0E0915E01F0915F018D
:100E600080E691E009951092800136C084E080937D
:100E7000820110925D0110925C01E0915A01F091A3
:100E80005B01099580915C01811105C081E080932F
:100E90005C0110923A01E0915D0181E08E0F809338
:100EA0005D01F0E0E65CFE4F80818093BB00909195
:100EB0005D0180915C01981708F479CF85E88093F3
:100EC000BC000AC085EC8093BC001092820104C073
:100ED000109281010E941E03FF91EF91BF91AF918B
:100EE0009F918F917F916F915F914F913F912F9142
:100EF0000F900FBE0F901F901895CF92DF92EF9238
:100F0000FF920F931F93CF93DF936C017A018B01B4
:100F1000C0E0D0E0CE15DF0589F0D8016D918D01DC
:100F2000D601ED91FC910190F081E02DC60109956B
:100F3000892B11F47E0102C02196ECCFC701DF910D
:100F4000CF911F910F91FF90EF90DF90CF90089578
:100F50008F929F92AF92BF920F931F93CF93DF9385
:100F6000CDB7DEB7A1970FB6F894DEBF0FBECDBFE9
:100F700019A2423008F44AE08E010F5D1F4F842E03
:100F8000912CA12CB12CA50194010E94230CE62FD9
:100F9000B901CA0101501109EA3014F4E05D01C041
:100FA000E95CD801EC93232B242B252B61F7011549
:100FB000110571F0F80101900020E9F73197AF01B8
:100FC000401B510BB8018BEA91E00E947D0702C0E3
:100FD00080E090E0A1960FB6F894DEBF0FBECDBFC3
:100FE000DF91CF911F910F91BF90AF909F908F9005
:100FF0000895CF92DF92EF92FF92CF93DF93EC01AF
:1010000020E030E04FE254E46F89788D898D9A8D2D
:101010000E94D70C882309F442C080E090E0AFE240
:10102000B4E48F8B988FA98FBA8F89E492E9A2EBF1
:10103000B4E4FE01FF9680839183A283B3838BA9DE
:101040009CA9ADA9BEA9181619061A061B063CF5DF
:101050006B897C898D899E899B01AC010E943B0E26
:101060006B017C016B8D7C8D8D8D9E8D9B01AC0108
:101070000E946B0C9B01AC01C701B6010E94DC0C05
:101080000E944E0D6BAB7CAB8DAB9EABCE01DF9166
:10109000CF91FF90EF90DF90CF900C946704DF9199
:1010A000CF91FF90EF90DF90CF90089590E0FC01FA
:1010B000EC53FF4F3491FC01E055FF4F2491FC01AC
:1010C000E456FF4FE491EE2309F43BC0332339F19A
:1010D000333091F038F43130A9F0323001F584B575
:1010E0008F7D12C0373091F03830A1F03430B9F430
:1010F000809180008F7D03C0809180008F778093E6
:1011000080000DC084B58F7784BD09C08091B00088
:101110008F7703C08091B0008F7D8093B000F0E0A6
:10112000EE0FFF1FEE56FF4FA591B4918FB7F894C5
:10113000EC91611103C020952E2301C02E2B2C931E
:101140008FBF0895CF93DF9390E0FC01E055FF4FF0
:101150002491FC01E456FF4F8491882361F190E0D3
:10116000880F991FFC01E857FF4FC591D491FC01EE
:10117000EE56FF4FA591B491611109C09FB7F89445
:101180008881209582238883EC912E230BC06230C6
:1011900061F49FB7F8943881822F809583238883E8
:1011A000EC912E2B2C939FBF06C08FB7F894E8814B
:1011B0002E2B28838FBFDF91CF9108953FB7F894EE
:1011C0008091D5029091D602A091D702B091D80219
:1011D00026B5A89B05C02F3F19F00196A11DB11D92
:1011E0003FBFBA2FA92F982F8827820F911DA11DCD
:1011F000B11DBC01CD0142E0660F771F881F991F0A
:101200004A95D1F708951F920F920FB60F921124AD
:101210002F933F938F939F93AF93BF938091D1026E
:101220009091D202A091D302B091D4023091D00219
:1012300023E0230F2D3720F40196A11DB11D05C019
:1012400026E8230F0296A11DB11D2093D0028093A2
:10125000D1029093D202A093D302B093D402809192
:10126000D5029091D602A091D702B091D8020196F2
:10127000A11DB11D8093D5029093D602A093D702F1
:10128000B093D802BF91AF919F918F913F912F91D1
:101290000F900FBE0F901F901895789484B58260C0
:1012A00084BD84B5816084BD85B5826085BD85B50A
:1012B000816085BD80916E00816080936E00109288
:1012C0008100809181008260809381008091810003
:1012D0008160809381008091800081608093800094
:1012E0008091B10084608093B1008091B0008160F2
:1012F0008093B00080917A00846080937A0080911E
:101300007A00826080937A0080917A008160809375
:101310007A0080917A00806880937A001092C100F0
:1013200060E087E10E94A20860E086E10E94A208D6
:1013300060E08AE10E94A20860E08BE10E94A208BE
:10134000E091BB01F091BC0182E08083E091B701A4
:10135000F091B8011082E091B901F091BA0180E1F9
:1013600080831092C301E091BF01F091C00186E03B
:101370008083E091BD01F091BE0180818061808316
:10138000E091BD01F091BE01808188608083E09191
:10139000BD01F091BE01808180688083E091BD0134
:1013A000F091BE0180818F7D80838CE892E00E9465
:1013B000F90740E050E06AE774E48CE892E00E94AC
:1013C000D9051092970210929802109299021092E9
:1013D0009A0210929B0210929C0210929D0210920F
:1013E0009E021092BF021092C0021092C10210928F
:1013F000C2021092AF021092B0021092B10210928B
:10140000B20210929F021092A0021092A1021092BA
:10141000A20288E492E00E94F90740E050E06AE707
:1014200074E488E492E00E94D9051092530210926D
:101430005402109255021092560210927B021092A2
:101440007C0210927D0210927E0210926B0210922A
:101450006C0210926D0210926E0210925B0210925A
:101460005C0210925D0210925E0284EF91E0A0E0B7
:10147000B0E08093570290935802A0935902B09322
:101480005A0288E492E00E94670488E492E00E9495
:1014900077038091570290915802A0915902B09120
:1014A0005A0240915302509154026091550270913A
:1014B000560284179507A607B707C1F44427552796
:1014C000BA01481B590B6A0B7B0B84179507A607BB
:1014D000B70761F040935702509358026093590246
:1014E00070935A0288E492E00E94670480916B0234
:1014F00090916C02A0916D02B0916E02892B8A2BA3
:101500008B2B09F452C00E94DE086B017C01809194
:101510006F0290917002A0917102B0917202B701B6
:10152000A601481B590B6A0B7B0B80916B029091B3
:101530006C02A0916D02B0916E02481759076A07BC
:101540007B0798F120918B02809153029091540275
:10155000A0915502B0915602222321F00196A11DBF
:10156000B11D03C00197A109B10980935302909363
:101570005402A0935502B0935602409153025091E9
:101580005402609155027091560288E492E00E94E4
:10159000CB02C0926F02D0927002E0927102F09280
:1015A000720288E492E00E946704C0905302D090D7
:1015B0005402E0905502F0905602F7FE14C0E091FC
:1015C000AB01F091AC010190F081E02D6DE28BEA6E
:1015D00091E0099566277727CB016C197D098E0963
:1015E0009F094AE003C04AE0C701B6010E94A8076C
:1015F0000E94DE084B015C0184E6C82ED12CE12C50
:10160000F12C0E94DE08DC01CB0188199909AA0996
:10161000BB09883E9340A105B10558F021E0C21AEC
:10162000D108E108F10888EE880E83E0981EA11C1D
:10163000B11CC114D104E104F10419F70E9459014D
:1016400028CF8F929F92AF92BF92CF92DF92EF926C
:10165000FF920F931F93CF93DF93EBEAF1E0138296
:10166000128288EE93E0A0E0B0E084839583A683A5
:10167000B78324E031E03183208325EC30E03587E7
:10168000248724EC30E03787268720EC30E0318B4C
:10169000208B21EC30E0338B228B22EC30E0358B39
:1016A000248B26EC30E0378B268B118E128E138E16
:1016B000148EE9EDF2E01382128284839583A6836F
:1016C000B78384E191E091838083ECE8F2E004E267
:1016D00011E0118300838824839482821386148608
:1016E000158616861786108A118A128A138A148A1A
:1016F000158A168AC12CD12C80E8E82E8FE3F82EAB
:10170000C78AD08EE18EF28E138E148E158E168EB1
:10171000C78ED0A2E1A2F2A213A214A215A216A211
:10172000C1E0D0E0D4A7C3A799249A9496A617A2A3
:1017300010A611A612A694E0A92EA38288E18483A4
:10174000A58225E0B22EB68213AA14AA15AA16AA5B
:1017500017AA10AE11AE12AE13AE14AE15AE16AE81
:10176000C092CB02D092CC02E092CD02F092CE0297
:101770001092CF021782108611861286CF010E9426
:101780007703B701A6018CE892E00E94D905E8E44E
:10179000F2E01183008382821386148615861686F2
:1017A0001786108A118A128A138A148A158A168A51
:1017B000C78AD08EE18EF28E138E148E158E168E01
:1017C000C78ED0A2E1A2F2A213A214A215A216A261
:1017D000D4A7C3A796A617A210A611A612A6B382D5
:1017E00089E18483A582B68213AA14AA15AA16AA2F
:1017F00017AA10AE11AE12AE13AE14AE15AE16AEE1
:10180000C0928702D0928802E0928902F0928A0206
:1018100010928B021782108611861286CF010E94C9
:101820007703B701A60188E492E0DF91CF911F9181
:101830000F91FF90EF90DF90CF90BF90AF909F906F
:101840008F900C94D905A1E21A2EAA1BBB1BFD0197
:101850000DC0AA1FBB1FEE1FFF1FA217B307E4078F
:10186000F50720F0A21BB30BE40BF50B661F771FE7
:10187000881F991F1A9469F76095709580959095C7
:101880009B01AC01BD01CF010895052E97FB1EF40D
:1018900000940E945C0C57FD07D00E94230C07FCAB
:1018A00003D04EF40C945C0C5095409530952195E6
:1018B0003F4F4F4F5F4F089590958095709561957C
:1018C0007F4F8F4F9F4F0895EE0FFF1F0590F491AC
:1018D000E02D09945058BB27AA270E94820C0C9433
:1018E000FC0D0E94EE0D38F00E94F50D20F039F449
:1018F0009F3F19F426F40C94EB0D0EF4E095E7FBF2
:101900000C94E50DE92F0E940D0E58F3BA176207EB
:1019100073078407950720F079F4A6F50C942F0E31
:101920000EF4E0950B2EBA2FA02D0B01B9019001FA
:101930000C01CA01A0011124FF27591B99F0593F3E
:1019400050F4503E68F11A16F040A22F232F342F86
:101950004427585FF3CF469537952795A795F040D4
:101960005395C9F77EF41F16BA0B620B730B840BE9
:10197000BAF09150A1F0FF0FBB1F661F771F881FA1
:10198000C2F70EC0BA0F621F731F841F48F48795F9
:1019900077956795B795F7959E3F08F0B0CF9395EB
:1019A000880F08F09927EE0F9795879508950E9464
:1019B000C10D08F481E008950E94F00C0C94FC0D18
:1019C0000E94F50D58F00E94EE0D40F029F45F3FA3
:1019D00029F00C94E50D51110C94300E0C94EB0D84
:1019E0000E940D0E68F39923B1F3552391F3951BD3
:1019F000550BBB27AA2762177307840738F09F5F30
:101A00005F4F220F331F441FAA1FA9F335D00E2E9C
:101A10003AF0E0E832D091505040E695001CCAF709
:101A20002BD0FE2F29D0660F771F881FBB1F2617CC
:101A300037074807AB07B0E809F0BB0B802DBF01A3
:101A4000FF2793585F4F3AF09E3F510578F00C9472
:101A5000E50D0C94300E5F3FE4F3983ED4F3869589
:101A600077956795B795F7959F5FC9F7880F911D93
:101A70009695879597F90895E1E0660F771F881F7F
:101A8000BB1F621773078407BA0720F0621B730B32
:101A9000840BBA0BEE1F88F7E09508950E94550D50
:101AA0006894B1110C94300E08950E94150E88F0C0
:101AB0009F5798F0B92F9927B751B0F0E1F0660F12
:101AC000771F881F991F1AF0BA95C9F714C0B13053
:101AD00091F00E942F0EB1E008950C942F0E672F05
:101AE000782F8827B85F39F0B93FCCF38695779582
:101AF0006795B395D9F73EF490958095709561956B
:101B00007F4F8F4F9F4F0895E89409C097FB3EF495
:101B100090958095709561957F4F8F4F9F4F99233A
:101B2000A9F0F92F96E9BB279395F69587957795B8
:101B30006795B795F111F8CFFAF4BB0F11F460FF78
:101B40001BC06F5F7F4F8F4F9F4F16C0882311F0D0
:101B500096E911C0772321F09EE8872F762F05C0E4
:101B6000662371F096E8862F70E060E02AF09A957F
:101B7000660F771F881FDAF7880F9695879597F974
:101B80000895990F0008550FAA0BE0E8FEEF16160E
:101B90001706E807F907C0F012161306E407F50761
:101BA00098F0621B730B840B950B39F40A2661F0D5
:101BB000232B242B252B21F408950A2609F4A14078
:101BC000A6958FEF811D811D089597F99F6780E885
:101BD00070E060E008959FEF80EC089500240A947F
:101BE0001616170618060906089500240A941216F8
:101BF0001306140605060895092E0394000C11F42B
:101C0000882352F0BB0F40F4BF2B11F460FF04C0D7
:101C10006F5F7F4F8F4F9F4F089557FD9058440F30
:101C2000551F59F05F3F71F04795880F97FB991F3B
:101C300061F09F3F79F087950895121613061406F8
:101C4000551FF2CF4695F1DF08C016161706180685
:101C5000991FF1CF86957105610508940895E89460
:101C6000BB2766277727CB0197F908950E94C10DFE
:101C700008F48FEF08950E944E0E0C94FC0D0E9404
:101C8000EE0D38F00E94F50D20F0952311F00C9424
:101C9000E50D0C94EB0D11240C94300E0E940D0EEA
:101CA00070F3959FC1F3950F50E0551F629FF001AF
:101CB000729FBB27F00DB11D639FAA27F00DB11DC8
:101CC000AA1F649F6627B00DA11D661F829F222751
:101CD000B00DA11D621F739FB00DA11D621F839FD8
:101CE000A00D611D221F749F3327A00D611D231FAE
:101CF000849F600D211D822F762F6A2F11249F57FC
:101D000050409AF0F1F088234AF0EE0FFF1FBB1FFE
:101D1000661F771F881F91505040A9F79E3F5105BD
:101D200080F00C94E50D0C94300E5F3FE4F3983E88
:101D3000D4F3869577956795B795F795E7959F5F67
:101D4000C1F7FE2B880F911D9695879597F90895F9
:101D500019F416F40C94EB0D0C94EE0E0E94150E73
:101D6000B8F39923C9F3B6F39F57550B87FF0E9429
:101D7000FC0E0024A0E640EA900180585695979505
:101D800028F4805C660F771F881F20F0261737071E
:101D9000480730F4621B730B840B202931294A2B2E
:101DA000A69517940794202531254A2758F7660FE2
:101DB000771F881F20F026173707480730F4620B7B
:101DC000730B840B200D311D411DA09581F7B901C6
:101DD000842F9158880F9695879508959F3F31F0ED
:101DE000915020F4879577956795B795880F911D49
:101DF0009695879597F9089591505040660F771FF3
:101E0000881FD2F7089581E090E0F8940C94080FB1
:041E1000F894FFCF74
:101E140000000000F0007D07B9009700AB00370117
:101E2400000000006403500317031403110310039C
:101E340000000000AB037703C903CB02B5027302B1
:0A1E440052021E02FD01A701630116
:00000001FF
