:100000000C9488010C94B9010C94B9010C94B901B9
:100010000C94B9010C94B9010C94B9010C94B90178
:100020000C94B9010C94B0050C94B0050C94B00577
:100030000C94B9010C94B9010C94B9010C94B90158
:100040000C94B9010C94B9010C94B9010C94B90148
:100050000C94B9010C94B9010C94B9010C948B0A5D
:100060000C94B9010C947A050C9450050C94B901C8
:100070000C94B9010C94B9010C94B9010C94B90118
:100080000C94B9010C94B9010C94B9010C94B90108
:100090000C94B9010C94B9010C94B9010C94A20709
:1000A0000C94B9010C94B9010C94B9010C94B901E8
:1000B0000C94B9010C94B9010C94B9010C94B901D8
:1000C0000C94B9010C94B9010C94B9010C94B901C8
:1000D0000C94B9010C94B9010C94B9010C94B901B8
:1000E0000C94B901CF02D302D702DB02DF02E30294
:1000F000E70223042A04310438043F045704460469
:1001000057044D04DC09DF09CE09D209D609160AC5
:10011000E309E709ED09F109F509FB09FF09030AFC
:10012000160A090A0D0A110A0C945B020C94DF02EC
:100130000C94D3020C94160A0C9431040C94D40839
:100140000C94FC030C94FF090C9461040C94DB02E6
:100150000C945A040C94D6090C94DD010C94BB0148
:100160000C94E3090C94EE020C9499030C94E709A7
:100170000C94C2040C9414020C94DC090C94AF048B
:100180000C9438040C942A040C9412040C94DF0987
:100190000C9465030C94E3020C94ED090C94460452
:1001A0000C94D2090C94F1090C94BA030C94110A22
:1001B0000C9423040C94F5090C94030A0C94CF02BC
:1001C0000C94CF010C945B040C944D040C943F04EC
:1001D0000C94D7020C945E040C94FB090C94D60C7E
:1001E0000C94E7020C94CE090C94090A0C94F604C2
:1001F0000C94B6020C9414050C9457040C940D0A3C
:100200000C9444030C949A0400002100240027005D
:100210002A002D0030003300010100000401070115
:100220000A0100002200250028002B002E003100CA
:10023000340002010000050108010B010505050558
:10024000070508080808020202020A0A080804044E
:10025000040401010101010101010303030303037C
:100260000303040707070C0C0C0C0C0C0C0C02020B
:10027000020206060606060606060B0B0B0B0B0B08
:100280000B0B010210202008081020401020408095
:10029000020102010804020101020408102040804A
:1002A00080402010080402018004020180402010D8
:1002B0000804020108040201010204081020408021
:1002C000010204081020408000000A0B02090C0DF6
:1002D0000E080703040100000000000000000000F9
:1002E000000000000000000000000000000000000E
:1002F00000000000121110000000000000000000CB
:100300000000000000000000000000000000D60C0B
:1003100011241FBECFEFD1E2DEBFCDBF00E00CBF86
:1003200012E0A0E0B2E0E2E8F1E200E00BBF02C0C0
:1003300007900D92AA33B107D9F723E0AAE3B2E000
:1003400001C01D92A53EB207E1F711E0C8E8D1E077
:1003500000E006C021970109802FFE010E94190EBE
:10036000C738D10780E00807A9F70E94D50A0C9486
:10037000BF100C940000FC01918D828D981761F0E4
:10038000828DDF01A80FB11D5D968C91928D9F5FCC
:100390009F73928F90E008958FEF9FEF0895FC0177
:1003A000918D828D981731F0828DE80FF11D858D2A
:1003B00090E008958FEF9FEF0895FC01918D228DBD
:1003C000892F90E0805C9F4F821B91098F73992742
:1003D00008958BEA92E00E94DD0121E0892B09F467
:1003E00020E0822F0895FC01848DDF01A80FB11D4C
:1003F000A35ABF4F2C91848D90E001968F7399275B
:10040000848FA689B7892C93A089B1898C91806447
:100410008C93938D848D981306C00288F389E02D08
:1004200080818F7D80830895EF92FF920F931F93B9
:10043000CF93DF93EC0181E0888F9B8D8C8D981397
:1004400005C0E889F989808185FD24C0F62E0B8DD1
:1004500010E00F5F1F4F0F731127E02E8C8DE812F5
:100460000CC00FB607FCFACFE889F989808185FFB7
:10047000F5CFCE010E94F301F1CF8B8DFE01E80F85
:10048000F11DE35AFF4FF0820B8FEA89FB898081CF
:10049000806207C0EE89FF896083E889F9898081DD
:1004A0008064808381E090E0DF91CF911F910F9174
:1004B000FF90EF900895CF93DF93EC01888D882310
:1004C000C9F0EA89FB89808185FD05C0A889B989C1
:1004D0008C9186FD0FC00FB607FCF5CF808185FF9C
:1004E000F2CFA889B9898C9185FFEDCFCE010E940A
:1004F000F301E7CFDF91CF91089580E090E0892B61
:1005000021F00E94E901811125C080E090E0892B53
:1005100041F080E090E0892B21F00E9400008111E1
:100520001CC080E090E0892B41F080E090E0892BB6
:1005300021F00E940000811113C080E090E0892B1F
:10054000A1F080E090E0892B81F00E9400008111F1
:100550000AC008950E940000D8CF0E940000E1CF99
:100560000E940000EACF0C9400000895CF93DF931F
:10057000DC014770552766277727FA013197CD911F
:10058000DC911197E730F10530F48827EE58FF4FE2
:100590008F4F0C94190EEC81FD8161E01BC0EC8142
:1005A000FD8165E017C0EC81FD8164E013C0EC8142
:1005B000FD8166E00FC0EC81FD8162E00BC0EC8143
:1005C000FD816AE007C0EC81FD8168E003C0EC8139
:1005D000FD8169E0CD01DF91CF911994CF93DF9335
:1005E000EC01CB01BA0126E030E040E050E00E948F
:1005F000FA0D623071058105910559F18CF4611590
:10060000710581059105F1F0613071058105910554
:10061000C1F5E881F9810480F581E02D65E02DC008
:10062000643071058105910511F1D4F065307105D3
:100630008105910531F5E881F9810480F581E02D8E
:1006400066E01BC0E881F9810480F581E02D64E05B
:1006500014C0E881F9810480F581E02D61E00DC0CE
:10066000E881F9810480F581E02D63E006C0E8812E
:10067000F9810480F581E02D62E0CE01DF91CF9118
:100680001994DF91CF9108954370552766277727F6
:10069000DC01ED91FC910480F581E02D42305105A3
:1006A0006105710571F0433051056105710559F01F
:1006B000413051056105710511F065E005C066E046
:1006C00003C06AE001C069E01994CF93DF93EC01A5
:1006D000CB01BA0123E030E040E050E00E94FA0D87
:1006E000613071058105910581F0623071058105E8
:1006F000910591F0672B682B692BC1F4E881F98192
:100700000480F581E02D64E00DC0E881F98104806A
:10071000F581E02D61E006C0E881F9810480F58172
:10072000E02D62E0CE01DF91CF911994DF91CF915E
:1007300008954370552766277727DC01ED91FC91DA
:100740000480F581E02D423051056105710571F09D
:10075000433051056105710559F04130510561057E
:10076000710511F062E005C063E003C061E001C003
:1007700060E019940F931F93CF93DF93EC01E8810E
:10078000F9810480F581E02D8C010D5B1F4FD801AC
:100790008C91811102C060E001C062E0CE01199528
:1007A000E881F9810480F581E02DD8018C918111D7
:1007B00002C061E001C063E0CE011995EBA5FCA584
:1007C000E230F10538F0EE0FFF1FEE0FFF1F3597F7
:1007D0003197F1F7E881F9810480F581E02DD801A6
:1007E0008C91811102C060E001C062E0CE01DF9116
:1007F000CF911F910F911994CF93DF93EC0120E0DB
:1008000030E0A9016B897C898D899E890E94ED0F5A
:1008100018161CF4EFA5F8A902C0E9A9FAA9DF91FE
:10082000CF9119940F931F93DC0112960C9112979C
:1008300010E009301105D8F5F8018827E758FF4F77
:100840008F4F0C94190EED91FC9111970084F18556
:10085000E02D29C0ED91FC9111970284F385E02DE4
:1008600022C0ED91FC9111970484F585E02D1BC009
:10087000ED91FC9111970684F785E02D14C0ED9160
:10088000FC9111970088F189E02D0DC0ED91FC914C
:1008900011970288F389E02D06C0ED91FC91119724
:1008A0000488F589E02DCD011F910F9119941F91B6
:1008B0000F91089508958FEF9FEF08958FEF9FEFA9
:1008C00008958091A80290E09195819591090895ED
:1008D00085ED8093BC008091BC0084FDFCCF10921C
:1008E0008202089540915C02262F30E0240F311DD2
:1008F00021323105DCF4209182022430C9F4FC015C
:1009000080E090E0861758F430915C022191DC0180
:10091000A65CBD4FA30FB11D2C930196F3CF809120
:100920005C02680F60935C0280E0089581E00895A6
:1009300082E00895CF93DF931F921F92CDB7DEB769
:10094000CB01642F49835A830E9472044981842F0A
:100950005A81952F0F900F90DF91CF910895CF93EB
:10096000DF931F92CDB7DEB7698361E0CE010196B8
:100970000E94720481E090E00F90DF91CF91089582
:100980000E94BA10CF93DF93FC012281222359F1F8
:10099000EC0161E083810E942A0A61E08C810E945F
:1009A0002A0A8A81843011F0883039F461E08D811F
:1009B0000E942A0A61E08E8106C0833011F08630E1
:1009C00021F461E08D810E942A0A8EA58F3F59F0A3
:1009D00061E00E942A0A6DA581E068278EA5DF915B
:1009E000CF910C94AD09DF91CF910895CF93DF9310
:1009F000FC0122812223A9F0EC010190F081E02D7D
:100A00000480F581E02D60E019958EA58F3F49F0B7
:100A100061E00E942A0A6DA58EA5DF91CF910C940A
:100A2000AD09DF91CF910895CF92DF92EF92FF92BF
:100A30000F931F93CF93DF93FC012281243041F069
:100A4000283031F0233031F0263021F012E003C09D
:100A500014E001C013E0EC012796E12CF12CC62E26
:100A6000D12C01E0C6010E2C02C0959587950A9401
:100A7000E2F7688180FD6027FE01349780810E9443
:100A8000AD09FFEFEF1AFF0A2196E11658F3DF9147
:100A9000CF911F910F91FF90EF90DF90CF9008952D
:100AA0001F920F920FB60F9211240BB60F922F9335
:100AB0003F934F935F936F937F938F939F93AF93E6
:100AC000BF93EF93FF938BEA92E00E94F301FF91B3
:100AD000EF91BF91AF919F918F917F916F915F91B6
:100AE0004F913F912F910F900BBE0F900FBE0F9023
:100AF0001F9018951F920F920FB60F9211240BB6EC
:100B00000F922F938F939F93EF93FF93E091BB02EC
:100B1000F091BC028081E091C102F091C20282FD9D
:100B200012C090818091C4028F5F8F732091C502A3
:100B3000821751F0E091C402F0E0E555FD4F958F2A
:100B40008093C40201C08081FF91EF919F918F91AA
:100B50002F910F900BBE0F900FBE0F901F90189506
:100B60001F920F920FB60F9211240F900FBE0F908D
:100B70001F9018952F923F924F925F926F927F92A3
:100B80008F929F92AF92BF92CF92DF92EF92FF929D
:100B90000F931F93CF93DF9300D01F92CDB7DEB793
:100BA0001C01FC0187849088A188B2888385948584
:100BB000A585B685881A990AAA0ABB0A6389748929
:100BC000858996899B01AC010E94F20F6B017C0123
:100BD000F101638D748D858D968D9B01AC010E9412
:100BE000220E9B01AC01C701B6010E94930E0E9428
:100BF000050F81149104A104B104A1F462307105C0
:100C0000810591050CF07CC0F10113A214A215A27C
:100C100016A2138A148A158A168A13AA14AA15AA68
:100C200016AA03C1F10103A914A925A936A9ED5BF0
:100C3000FF4F181419041A041B04FCF410161106B3
:100C4000120613064CF4681579058A059B054CF5C8
:100C50002081211155C025C001151105210531053F
:100C600009F44EC0681579058A059B050CF048C04B
:100C70008081882309F444C037C01016110612067B
:100C80001306F4F4002711279801081919092A09F5
:100C90003B0960177107820793071CF42081222308
:100CA00079F19B01AC0188279927DC01821B930B0A
:100CB000A40BB50BF10183AB94ABA5ABB6AB20C0D5
:100CC0000115110521053105D9F0CC24DD2476016B
:100CD000C818D908EA08FB086C157D058E059F0524
:100CE0007CF4808181110CC0309520951095019580
:100CF0001F4F2F4F3F4FF10103AB14AB25AB36AB6A
:100D0000F101C3A8D4A8E5A8F6A881010D5B1F4F87
:100D1000C114D104E104F10491F487A990ADA1AD0F
:100D2000B2AD83AF94AFA5AFB6AF81E0181419048C
:100D30001A041B040CF080E0F801808340C0F1012C
:100D400083AC94ACA5ACB6ACA5019401C501B401CB
:100D50000E94220E2B013C01C701B6010E943D0FEB
:100D600020E030E040E850E40E94F20F20E030E064
:100D700040E85FE30E94220E9B01AC01C301B20177
:100D80000E94930E9B01AC01C501B4010E94210E8B
:100D90004B015C01F101FF964080518062807380BD
:100DA0009201A3010E94ED0F181614F042015301A5
:100DB000A401B501F10143AF54AF65AF76AFFFEFCA
:100DC000CF1ADF0AEF0AFF0AF101C3AAD4AAE5AAE3
:100DD000F6AA23AD34AD45AD56ADCA01B90129839C
:100DE0003A834B835C830E940C0FF10163A374A3CD
:100DF00085A396A329813A814B815C8160E074E2EE
:100E000084E799E40E94930EF101638B748B858BC8
:100E1000968BF8012081211108C0DC01CB01B0586C
:100E2000F101838B948BA58BB68B0F900F900F9055
:100E30000F90DF91CF911F910F91FF90EF90DF9076
:100E4000CF90BF90AF909F908F907F906F905F906A
:100E50004F903F902F9008954F925F926F927F92A4
:100E60008F929F92AF92BF92CF92DF92EF92FF92BA
:100E7000CF93DF93EC016A017B018B8C9C8CAD8C52
:100E8000BE8C9A01AB01C501B4010E948E0E88236D
:100E900009F449C06BA97CA98DA99EA90E943D0FA8
:100EA0002B013C01A7019601C501B4010E94930EDC
:100EB0009B01AC01C301B2010E94F20F0E94050F19
:100EC0006BAB7CAB8DAB9EABA701960160E070E095
:100ED00080E090E40E94930E0E94651026E53EE0BB
:100EE0004DE25FE30E94F20F20E034E244E759E470
:100EF0000E94F20F6FAB78AF89AF9AAFCB8EDC8ECA
:100F0000ED8EFE8ECE01DF91CF91FF90EF90DF90BE
:100F1000CF90BF90AF909F908F907F906F905F9099
:100F20004F900C94BA05DF91CF91FF90EF90DF9036
:100F3000CF90BF90AF909F908F907F906F905F9079
:100F40004F9008951F920F920FB60F9211240BB677
:100F50000F922F933F934F935F936F937F938F9352
:100F60009F93AF93BF93EF93FF938091B900887FD6
:100F7000803609F49CC068F5883209F45BC090F4AF
:100F8000803109F454C038F4882309F4F6C088305D
:100F900009F44DC0F6C0883109F44CC0803209F420
:100FA0005DC0EFC0803409F468C048F4803309F4B0
:100FB00055C0883309F0E5C080938102D8C08035E0
:100FC00009F44FC0883509F45DC0883409F0D9C0F0
:100FD000D6C0883909F4C7C0A8F4883709F467C0B7
:100FE00038F4883609F463C0803709F460C0C9C09A
:100FF000883809F4B8C0803909F45FC0803809F036
:10100000C0C05BC0803B09F486C038F4803A09F464
:1010100066C0883A09F47FC0B4C0803C09F4A7C018
:10102000883C09F4A4C0883B09F48AC0AAC0809116
:10103000A70210C09091A6028091A502981770F5A2
:10104000E091A60281E08E0F8093A602F0E0EB57BC
:10105000FD4F80818093BB0085EC86C08093810228
:101060008EC0E091A60281E08E0F8093A60280914F
:10107000BB00F0E0EB57FD4F80839091A60280917A
:10108000A5026EC0E091A60281E08E0F8093A602B9
:101090008091BB00F0E0EB57FD4F8083809184028C
:1010A00081116DC081E08093830284EA61C083E096
:1010B0008093820210928002CFCF80918002803292
:1010C00008F051C0E091800281E08E0F8093800291
:1010D0008091BB00F0E0E05AFD4F8083BDCF85ECEE
:1010E0008093BC001092820280918002803230F4A2
:1010F000E0918002F0E0E05AFD4F108260918002A2
:1011000070E0E0915E02F0915F0280E692E0199556
:101110001092800236C084E08093820210925D02B9
:1011200010925C02E0915A02F0915B021995809155
:101130005C02811105C081E080935C0210923A024A
:10114000E0915D0281E08E0F80935D02F0E0E65C4D
:10115000FD4F80818093BB0090915D0280915C0285
:10116000981708F479CF85E88093BC000AC085EC15
:101170008093BC001092820204C0109281020E94EF
:101180006804FF91EF91BF91AF919F918F917F91F3
:101190006F915F914F913F912F910F900BBE0F90E8
:1011A0000FBE0F901F901895CF92DF92EF92FF9293
:1011B0000F931F93CF93DF936C017A018B01C0E0F3
:1011C000D0E0CE15DF0589F0D8016D918D01D601F3
:1011D000ED91FC910190F081E02DC6011995892BCC
:1011E00011F47E0102C02196ECCFC701DF91CF91AF
:1011F0001F910F91FF90EF90DF90CF9008958F9205
:101200009F92AF92BF920F931F93CF93DF93CDB76F
:10121000DEB7A1970FB6F894DEBF0FBECDBF19A2FF
:10122000423008F44AE08E010F5D1F4F842E912C4E
:10123000A12CB12CA50194010E94D80DE62FB90173
:10124000CA0101501109EA3014F4E05D01C0E95C03
:10125000D801EC93232B242B252B61F701151105C5
:1012600071F0F80101900020E9F73197AF01401BC0
:10127000510BB8018BEA92E00E94D40802C080E0D2
:1012800090E0A1960FB6F894DEBF0FBECDBFDF9100
:10129000CF911F910F91BF90AF909F908F90089525
:1012A000CF92DF92EF92FF92CF93DF93EC0120E099
:1012B00030E04FE254E46F89788D898D9A8D0E94D9
:1012C0008E0E882309F442C080E090E0AFE2B4E4DF
:1012D0008F8B988FA98FBA8F89E492E9A2EBB4E43F
:1012E000FE01FF9680839183A283B3838BA99CA97F
:1012F000ADA9BEA9181619061A061B063CF56B897E
:101300007C898D899E899B01AC010E94F20F6B0143
:101310007C016B8D7C8D8D8D9E8D9B01AC010E941F
:10132000220E9B01AC01C701B6010E94930E0E94E0
:10133000050F6BAB7CAB8DAB9EABCE01DF91CF913C
:10134000FF90EF90DF90CF900C94BA05DF91CF9192
:10135000FF90EF90DF90CF900895362F90E0FC0142
:10136000E853FD4F4491FC01EE57FD4F2491FC01E1
:10137000E45CFD4F9491992309F46BC0442309F474
:1013800055C050E0FA013197E231F10508F04EC046
:101390008827EE57FF4F8F4F0C94190E80918000D5
:1013A0008F7707C0809180008F7D03C0809180007F
:1013B000877F809380003AC084B58F7702C084B560
:1013C0008F7D84BD33C08091B0008F7703C0809142
:1013D000B0008F7D8093B00029C0809190008F77FE
:1013E00007C0809190008F7D03C080919000877F1F
:1013F000809390001BC08091A0008F7707C08091E0
:10140000A0008F7D03C08091A000877F8093A00003
:101410000DC0809120018F7707C0809120018F7DC2
:1014200003C080912001877F80932001E92FF0E0A5
:10143000EE0FFF1FEE5DFD4FA591B4918FB7F894AD
:10144000EC91311103C020952E2301C02E2B2C933B
:101450008FBF0895CF93DF9390E0FC01EE57FD4FCF
:101460002491FC01E45CFD4F8491882361F190E0BC
:10147000880F991FFC01E85FFD4FC591D491FC01D5
:10148000EE5DFD4FA591B491611109C09FB7F8942D
:101490008881209582238883EC912E230BC06230B3
:1014A00061F49FB7F8943881822F809583238883D5
:1014B000EC912E2B2C939FBF06C08FB7F894E88138
:1014C0002E2B28838FBFDF91CF9108953FB7F894DB
:1014D0008091D5039091D603A091D703B091D80302
:1014E00026B5A89B05C02F3F19F00196A11DB11D7F
:1014F0003FBFBA2FA92F982F8827820F911DA11DBA
:10150000B11DBC01CD0142E0660F771F881F991FF6
:101510004A95D1F708951F920F920FB60F9211249A
:101520002F933F938F939F93AF93BF938091D1035A
:101530009091D203A091D303B091D4033091D00302
:1015400023E0230F2D3720F40196A11DB11D05C006
:1015500026E8230F0296A11DB11D2093D00380938E
:10156000D1039093D203A093D303B093D40380917B
:10157000D5039091D603A091D703B091D8030196DB
:10158000A11DB11D8093D5039093D603A093D703DB
:10159000B093D803BF91AF919F918F913F912F91BD
:1015A0000F900FBE0F901F901895789484B58260AD
:1015B00084BD84B5816084BD85B5826085BD85B5F7
:1015C000816085BD80916E00816080936E00109275
:1015D00081008091810082608093810080918100F0
:1015E0008160809381008091800081608093800081
:1015F0008091B10084608093B1008091B0008160DF
:101600008093B000809191008260809391008091DE
:10161000910081608093910080919000816080931F
:1016200090008091A10082608093A1008091A10030
:1016300081608093A1008091A00081608093A000D0
:10164000809121018260809321018091210181603C
:1016500080932101809120018160809320018091FD
:101660007A00846080937A0080917A00826080930F
:101670007A0080917A00816080937A0080917A006C
:10168000806880937A001092C10060E087E10E9438
:101690002A0A60E086E10E942A0A60E08AE10E944C
:1016A0002A0A60E08BE10E942A0AE091BB02F091D5
:1016B000BC0282E08083E091B702F091B802108210
:1016C000E091B902F091BA0280E180831092C302E6
:1016D000E091BF02F091C00286E08083E091BD02FC
:1016E000F091BE02808180618083E091BD02F09123
:1016F000BE02808188608083E091BD02F091BE02CD
:10170000808180688083E091BD02F091BE0280817B
:101710008F7D80838CE893E00E94500940E050E088
:101720006AE774E48CE893E00E942C071092970318
:10173000109298031092990310929A0310929B03AF
:1017400010929C0310929D0310929E031092BF036F
:101750001092C0031092C1031092C2031092AF0303
:101760001092B0031092B1031092B20310929F0333
:101770001092A0031092A1031092A20388E493E0B8
:101780000E94500940E050E06AE774E488E493E086
:101790000E942C0710925303109254031092550389
:1017A0001092560310927B0310927C0310927D03DB
:1017B00010927E0310926B0310926C0310926D03D3
:1017C00010926E0310925B0310925C0310925D0303
:1017D00010925E0384EF91E0A0E0B0E080935703A5
:1017E00090935803A0935903B0935A0388E493E06D
:1017F0000E94BA0588E493E00E94C20480915703D6
:1018000090915803A0915903B0915A03409153030A
:1018100050915403609155037091560384179507B6
:10182000A607B707C1F444275527BA01481B590B2F
:101830006A0B7B0B84179507A607B70761F04093E7
:101840005703509358036093590370935A0388E4E5
:1018500093E00E94BA0580916B0390916C03A09174
:101860006D03B0916E03892B8A2B8B2B09F452C028
:101870000E94660A6B017C0180916F039091700356
:10188000A0917103B0917203B701A601481B590BD7
:101890006A0B7B0B80916B0390916C03A0916D039D
:1018A000B0916E03481759076A077B0798F120919A
:1018B0008B038091530390915403A0915503B091F1
:1018C0005603222321F00196A11DB11D03C00197EB
:1018D000A109B1098093530390935403A093550336
:1018E000B0935603409153035091540360915503B4
:1018F0007091560388E493E00E941204C0926F0333
:10190000D0927003E0927103F092720388E493E046
:101910000E94BA05C0905303D0905403E090550341
:10192000F0905603F7FE14C0E091AB02F091AC02C8
:101930000190F081E02D6DE28BEA92E01995662727
:101940007727CB016C197D098E099F094AE003C0F6
:101950004AE0C701B6010E94FF080E94660A4B01D7
:101960005C018AE0C82ED12CE12CF12C0E94660A81
:10197000DC01CB0188199909AA09BB09883E93406B
:10198000A105B10558F021E0C21AD108E108F1081B
:1019900088EE880E83E0981EA11CB11CC114D104EE
:1019A000E104F10419F70E947D0228CF8F929F92E3
:1019B000AF92BF92CF92DF92EF92FF920F931F935D
:1019C000CF93DF93EBEAF2E01382128288EE93E08A
:1019D000A0E0B0E084839583A683B78324E032E05F
:1019E0003183208325EC30E03587248724EC30E0F8
:1019F0003787268720EC30E0318B208B21EC30E0DC
:101A0000338B228B22EC30E0358B248B26EC30E0BC
:101A1000378B268B118E128E138E148EE9EDF3E028
:101A20001382128284839583A683B78384E192E034
:101A300091838083ECE8F3E004E212E011830083F9
:101A400088248394828213861486158616861786C8
:101A5000108A118A128A138A148A158A168AC12C4E
:101A6000D12C80E8E82E8FE3F82EC78AD08EE18E45
:101A7000F28E138E148E158E168EC78ED0A2E1A212
:101A8000F2A213A214A215A216A2C1E0D0E0D4A71C
:101A9000C3A799249A9496A617A210A611A612A6D7
:101AA00094E0A92EA38288E18483A58225E0B22E4A
:101AB000B68213AA14AA15AA16AA17AA10AE11AEB6
:101AC00012AE13AE14AE15AE16AEC092CB03D092CA
:101AD000CC03E092CD03F092CE031092CF03178295
:101AE000108611861286CF010E94C204B701A6019A
:101AF0008CE893E00E942C07E8E4F3E01183008374
:101B0000828213861486158616861786108A118A95
:101B1000128A138A148A158A168AC78AD08EE18E91
:101B2000F28E138E148E158E168EC78ED0A2E1A261
:101B3000F2A213A214A215A216A2D4A7C3A796A616
:101B400017A210A611A612A6B38289E18483A582EA
:101B5000B68213AA14AA15AA16AA17AA10AE11AE15
:101B600012AE13AE14AE15AE16AEC0928703D0926D
:101B70008803E0928903F0928A0310928B03178204
:101B8000108611861286CF010E94C204B701A601F9
:101B900088E493E0DF91CF911F910F91FF90EF9038
:101BA000DF90CF90BF90AF909F908F900C942C07B8
:101BB000A1E21A2EAA1BBB1BFD010DC0AA1FBB1F51
:101BC000EE1FFF1FA217B307E407F50720F0A21BC3
:101BD000B30BE40BF50B661F771F881F991F1A9430
:101BE00069F760957095809590959B01AC01BD015A
:101BF000CF010895052E97FB1EF400940E94110E4C
:101C000057FD07D00E94D80D07FC03D04EF40C946A
:101C1000110E50954095309521953F4F4F4F5F4F96
:101C2000089590958095709561957F4F8F4F9F4F48
:101C30000895EE0FFF1F881F8BBF0790F691E02DD0
:101C400019945058BB27AA270E94390E0C94B30F41
:101C50000E94A50F38F00E94AC0F20F039F49F3F8E
:101C600019F426F40C94A20F0EF4E095E7FB0C9403
:101C70009C0FE92F0E94C40F58F3BA17620773072D
:101C80008407950720F079F4A6F50C94E60F0EF47E
:101C9000E0950B2EBA2FA02D0B01B90190010C017C
:101CA000CA01A0011124FF27591B99F0593F50F494
:101CB000503E68F11A16F040A22F232F342F4427EC
:101CC000585FF3CF469537952795A795F0405395E4
:101CD000C9F77EF41F16BA0B620B730B840BBAF0B4
:101CE0009150A1F0FF0FBB1F661F771F881FC2F71F
:101CF0000EC0BA0F621F731F841F48F48795779533
:101D00006795B795F7959E3F08F0B0CF9395880FEC
:101D100008F09927EE0F9795879508950E94780F00
:101D200008F481E008950E94A70E0C94B30F0E945E
:101D3000AC0F58F00E94A50F40F029F45F3F29F046
:101D40000C949C0F51110C94E70F0C94A20F0E945D
:101D5000C40F68F39923B1F3552391F3951B550BE9
:101D6000BB27AA2762177307840738F09F5F5F4F6E
:101D7000220F331F441FAA1FA9F335D00E2E3AF0AD
:101D8000E0E832D091505040E695001CCAF72BD0C5
:101D9000FE2F29D0660F771F881FBB1F2617370716
:101DA0004807AB07B0E809F0BB0B802DBF01FF2748
:101DB00093585F4F3AF09E3F510578F00C949C0F7A
:101DC0000C94E70F5F3FE4F3983ED4F38695779544
:101DD0006795B795F7959F5FC9F7880F911D969501
:101DE000879597F90895E1E0660F771F881FBB1F5D
:101DF000621773078407BA0720F0621B730B840B0A
:101E0000BA0BEE1F88F7E09508950E940C0F6894B6
:101E1000B1110C94E70F08950E94CC0F88F09F57E2
:101E200098F0B92F9927B751B0F0E1F0660F771FFE
:101E3000881F991F1AF0BA95C9F714C0B13091F0F4
:101E40000E94E60FB1E008950C94E60F672F782FFB
:101E50008827B85F39F0B93FCCF3869577956795B9
:101E6000B395D9F73EF490958095709561957F4F25
:101E70008F4F9F4F0895E89409C097FB3EF49095CB
:101E80008095709561957F4F8F4F9F4F9923A9F053
:101E9000F92F96E9BB279395F695879577956795E2
:101EA000B795F111F8CFFAF4BB0F11F460FF1BC026
:101EB0006F5F7F4F8F4F9F4F16C0882311F096E9B9
:101EC00011C0772321F09EE8872F762F05C0662367
:101ED00071F096E8862F70E060E02AF09A95660F20
:101EE000771F881FDAF7880F9695879597F90895D9
:101EF000990F0008550FAA0BE0E8FEEF161617061B
:101F0000E807F907C0F012161306E407F50798F082
:101F1000621B730B840B950B39F40A2661F0232B9B
:101F2000242B252B21F408950A2609F4A140A69517
:101F30008FEF811D811D089597F99F6780E870E0FC
:101F400060E008959FEF80EC089500240A9416162F
:101F5000170618060906089500240A941216130697
:101F6000140605060895092E0394000C11F4882325
:101F700052F0BB0F40F4BF2B11F460FF04C06F5F41
:101F80007F4F8F4F9F4F089557FD9058440F551F17
:101F900059F05F3F71F04795880F97FB991F61F0EB
:101FA0009F3F79F087950895121613061406551F62
:101FB000F2CF4695F1DF08C0161617061806991FCE
:101FC000F1CF86957105610508940895E894BB27C3
:101FD00066277727CB0197F908950E94780F08F4B8
:101FE0008FEF08950E9405100C94B30F0E94A50F67
:101FF00038F00E94AC0F20F0952311F00C949C0F48
:102000000C94A20F11240C94E70F0E94C40F70F3DC
:10201000959FC1F3950F50E0551F629FF001729F8D
:10202000BB27F00DB11D639FAA27F00DB11DAA1F9C
:10203000649F6627B00DA11D661F829F2227B00DE9
:10204000A11D621F739FB00DA11D621F839FA00D74
:10205000611D221F749F3327A00D611D231F849FC4
:10206000600D211D822F762F6A2F11249F5750401B
:102070009AF0F1F088234AF0EE0FFF1FBB1F661F96
:10208000771F881F91505040A9F79E3F510580F05F
:102090000C949C0F0C94E70F5F3FE4F3983ED4F34D
:1020A000869577956795B795F795E7959F5FC1F703
:1020B000FE2B880F911D9695879597F9089519F431
:1020C00016F40C94A20F0C94A5100E94CC0FB8F338
:1020D0009923C9F3B6F39F57550B87FF0E94B3109E
:1020E0000024A0E640EA900180585695979528F480
:1020F000805C660F771F881F20F026173707480778
:1021000030F4621B730B840B202931294A2BA695CE
:1021100017940794202531254A2758F7660F771F13
:10212000881F20F026173707480730F4620B730B1F
:10213000840B200D311D411DA09581F7B901842F1D
:102140009158880F9695879508959F3F31F091504B
:1021500020F4879577956795B795880F911D96958B
:10216000879597F9089591505040660F771F881F03
:10217000D2F7089581E090E0F8940C94BF10F894A1
:02218000FFCF8F
:10218200000000001402D408DD01BB01CF015B0294
:1021920000000000AF049A0461045E045B045A0468
:1021A20000000000F604C20414051204FC03BA0382
:0A21B200990365034403EE02B60230
:00000001FF
