:100000000C9495010C94C6010C94C6010C94C60185
:100010000C94C6010C94C6010C94C6010C94C60144
:100020000C94C6010C94BD050C94BD050C94BD0543
:100030000C94C6010C94C6010C94C6010C94C60124
:100040000C94C6010C94C6010C94C6010C94C60114
:100050000C94C6010C94C6010C94C6010C94F00BD0
:100060000C94C6010C9487050C945D050C94C60194
:100070000C94C6010C94C6010C94C6010C94C601E4
:100080000C94C6010C94C6010C94C6010C94C601D4
:100090000C94C6010C94C6010C94C6010C949208F1
:1000A0000C94C6010C94C6010C94C6010C94C601B4
:1000B0000C94C6010C94C6010C94C6010C94C601A4
:1000C0000C94C6010C94C6010C94C6010C94C60194
:1000D0000C94C6010C94C6010C94C6010C94C60184
:1000E0000C94C601DC02E002E402E802EC02F00239
:1000F000F402300437043E0445044C046404530401
:1001000064045A04ED0AF00ADF0AE30AE90A270B3D
:10011000F40AF80AFE0A020B060B0C0B100B140B68
:10012000270B1A0B1E0B220B0C94270B0C94E90ABD
:100130000C94100B0C9453040C94F40A0C942102AC
:100140000C9467040C943E040C940C0B0C94060B5A
:100150000C94C4090C94E8020C94DC020C94C302C5
:100160000C94CF040C94A7040C94E0020C945A0451
:100170000C9472030C9451030C9421050C946B04A1
:100180000C9403050C94DC010C94ED0A0C94E4022D
:100190000C946E040C94EA010C9464040C9409040D
:1001A0000C94FE0A0C94020E0C9437040C941A0B57
:1001B0000C9430040C94C8010C9445040C94C703AF
:1001C0000C94140B0C94F80A0C94020B0C94680217
:1001D0000C94FB020C94F0020C94F4020C9468044E
:1001E0000C94A6030C941E0B0C944C040C94F00A73
:1001F0000C941F040C94220B0C94EC020C94DF0A58
:100200000C94BC040C94E30A000020002300260098
:1002100029002C002F00320000010000030106011C
:10022000090100002100240027002A002D003000D1
:10023000330001010000040107010A01000022004F
:10024000250028002B002E003100340002010000A0
:10025000050108010B010505050507050808080843
:10026000020202020A0A080804040404010101014E
:100270000101010103030303030303030407070749
:100280000C0C0C0C0C0C0C0C0202020206060606EE
:10029000060606060B0B0B0B0B0B0B0B01021020BB
:1002A00020080810204010204080020102010804AC
:1002B0000201010204081020408080402010080440
:1002C0000201800402018040201008040201080499
:1002D00002010102040810204080010204081020DD
:1002E000408000000A0B02090C0D0E0807030401F0
:1002F00000000000000000000000000000000000FE
:1003000000000000000000000000000000001211CA
:1003100010000000000000000000000000000000CD
:100320000000000000000000020E11241FBECFEFED
:10033000D1E2DEBFCDBF00E00CBF12E0A0E0B2E032
:10034000EAEDF3E200E00BBF02C007900D92A03887
:10035000B107D9F724E0A0E8B2E001C01D92AB32AA
:10036000B207E1F711E0C5E9D1E000E006C021974E
:100370000109802FFE010E94450FC439D10780E09A
:100380000807A9F70E943A0C0C94EB110C9400009A
:10039000FC01918D828D981761F0828DDF01A80F8D
:1003A000B11D5D968C91928D9F5F9F73928F90E0AF
:1003B00008958FEF9FEF0895FC01918D828D98171E
:1003C00031F0828DE80FF11D858D90E008958FEF5B
:1003D0009FEF0895FC01918D228D892F90E0805C24
:1003E0009F4F821B91098F739927089581EF92E0A7
:1003F0000E94EA0121E0892B09F420E0822F089570
:10040000FC01848DDF01A80FB11DA35ABF4F2C91B1
:10041000848D90E001968F739927848FA689B78980
:100420002C93A089B1898C9180648C93938D848D59
:10043000981306C00288F389E02D80818F7D808328
:100440000895EF92FF920F931F93CF93DF93EC01E8
:1004500081E0888F9B8D8C8D981305C0E889F98980
:10046000808185FD24C0F62E0B8D10E00F5F1F4F9D
:100470000F731127E02E8C8DE8120CC00FB607FC0D
:10048000FACFE889F989808185FFF5CFCE010E94F6
:100490000002F1CF8B8DFE01E80FF11DE35AFF4FF3
:1004A000F0820B8FEA89FB898081806207C0EE8928
:1004B000FF896083E889F98980818064808381E095
:1004C00090E0DF91CF911F910F91FF90EF900895F1
:1004D000CF93DF93EC01888D8823C9F0EA89FB89EB
:1004E000808185FD05C0A889B9898C9186FD0FC0E2
:1004F0000FB607FCF5CF808185FFF2CFA889B989B7
:100500008C9185FFEDCFCE010E940002E7CFDF91F5
:10051000CF91089580E090E0892B21F00E94F601B0
:10052000811125C080E090E0892B41F080E090E0CF
:10053000892B21F00E94000081111CC080E090E016
:10054000892B41F080E090E0892B21F00E9400008F
:10055000811113C080E090E0892BA1F080E090E051
:10056000892B81F00E94000081110AC008950E9429
:100570000000D8CF0E940000E1CF0E940000EACF27
:100580000C9400000895CF93DF93DC01477055274A
:1005900066277727FA013197CD91DC911197E730E3
:1005A000F10530F48827EE58FF4F8F4F0C94450F1C
:1005B000EC81FD8161E01BC0EC81FD8165E017C02D
:1005C000EC81FD8164E013C0EC81FD8166E00FC029
:1005D000EC81FD8162E00BC0EC81FD816AE007C027
:1005E000EC81FD8168E003C0EC81FD8169E0CD0113
:1005F000DF91CF911994CF93DF93EC01CB01BA0136
:1006000026E030E040E050E00E94260F62307105A5
:100610008105910559F18CF46115710581059105EC
:10062000F1F06130710581059105C1F5E881F9812D
:100630000480F581E02D65E02DC0643071058105F1
:10064000910511F1D4F0653071058105910531F501
:10065000E881F9810480F581E02D66E01BC0E88126
:10066000F9810480F581E02D64E014C0E881F9810E
:100670000480F581E02D61E00DC0E881F9810480FE
:10068000F581E02D63E006C0E881F9810480F58101
:10069000E02D62E0CE01DF91CF911994DF91CF91EF
:1006A00008954370552766277727DC01ED91FC916B
:1006B0000480F581E02D423051056105710571F02E
:1006C000433051056105710559F04130510561050F
:1006D000710511F065E005C066E003C06AE001C085
:1006E00069E01994CF93DF93EC01CB01BA0123E0C9
:1006F00030E040E050E00E94260F61307105810536
:10070000910581F0623071058105910591F0672BAB
:10071000682B692BC1F4E881F9810480F581E02D13
:1007200064E00DC0E881F9810480F581E02D61E08D
:1007300006C0E881F9810480F581E02D62E0CE01F8
:10074000DF91CF911994DF91CF9108954370552790
:1007500066277727DC01ED91FC910480F581E02D7F
:10076000423051056105710571F043305105610555
:10077000710559F0413051056105710511F062E0D4
:1007800005C063E003C061E001C060E019940F930D
:100790001F93CF93DF93EC01E881F9810480F58109
:1007A000E02D8C010D5B1F4FD8018C91811102C08F
:1007B00060E001C062E0CE011995E881F981048012
:1007C000F581E02DD8018C91811102C061E001C05A
:1007D00063E0CE011995EBA5FCA5E230F10538F0F8
:1007E000EE0FFF1FEE0FFF1F35973197F1F7E881EE
:1007F000F9810480F581E02DD8018C91811102C02E
:1008000060E001C062E0CE01DF91CF911F910F91B6
:100810001994CF93DF93EC0120E030E0A9016B89BC
:100820007C898D899E890E94191118161CF4EFA5E8
:10083000F8A902C0E9A9FAA9DF91CF9119940F9301
:100840001F93DC0112960C91129710E009301105EC
:10085000D8F5F8018827E758FF4F8F4F0C94450FC4
:10086000ED91FC9111970084F185E02D29C0ED9167
:10087000FC9111970284F385E02D22C0ED91FC914B
:1008800011970484F585E02D1BC0ED91FC91119723
:100890000684F785E02D14C0ED91FC911197008836
:1008A000F189E02D0DC0ED91FC9111970288F3893B
:1008B000E02D06C0ED91FC9111970488F589E02D9B
:1008C000CD011F910F9119941F910F9108950895D3
:1008D0008FEF9FEF08958FEF9FEF08958091EE02C5
:1008E00090E0919581959109089585ED8093BC00E4
:1008F0008091BC0084FDFCCF1092C8020895409105
:10090000A202262F30E0240F311D21323105DCF404
:100910002091C8022430C9F4FC0180E090E08617E1
:1009200058F43091A2022191DC01A058BD4FA30FD1
:10093000B11D2C930196F3CF8091A202680F6093B2
:10094000A20280E0089581E0089582E00895CF93A7
:10095000DF931F921F92CDB7DEB7CB01642F49837F
:100960005A830E947F044981842F5A81952F0F90CA
:100970000F90DF91CF910895CF93DF931F92CDB762
:10098000DEB7698361E0CE0101960E947F0481E0B9
:1009900090E00F90DF91CF9108950E94E611CF93E0
:1009A000DF93FC012281222359F1EC0161E0838174
:1009B0000E94580B61E08C810E94580B8A81843020
:1009C00011F0883039F461E08D810E94580B61E0AC
:1009D0008E8106C0833011F0863021F461E08D8174
:1009E0000E94580B8EA58F3F59F061E00E94580B72
:1009F0006DA581E068278EA5DF91CF910C94280B1F
:100A0000DF91CF910895CF93DF93FC0122812223C0
:100A1000A9F0EC010190F081E02D0480F581E02D3A
:100A200060E019958EA58F3F49F061E00E94580B58
:100A30006DA58EA5DF91CF910C94280BDF91CF91FE
:100A40000895CF92DF92EF92FF920F931F93CF936F
:100A5000DF93FC012281243041F0283031F0233033
:100A600031F0263021F012E003C014E001C013E0A1
:100A7000EC012796E12CF12CC62ED12C01E0C60109
:100A80000E2C02C0959587950A94E2F7688180FD47
:100A90006027FE01349780810E94280BFFEFEF1A38
:100AA000FF0A2196E11658F3DF91CF911F910F9124
:100AB000FF90EF90DF90CF9008951F920F920FB6A6
:100AC0000F9211240BB60F922F933F934F935F9386
:100AD0006F937F938F939F93AF93BF93EF93FF9306
:100AE00081EF92E00E940002FF91EF91BF91AF91E0
:100AF0009F918F917F916F915F914F913F912F9136
:100B00000F900BBE0F900FBE0F901F9018951F9265
:100B10000F920FB60F9211240BB60F922F938F9353
:100B20009F93EF93FF93E0910103F0910203808183
:100B3000E0910703F091080382FD12C0908180913B
:100B40000A038F5F8F7320910B03821751F0E0919E
:100B50000A03F0E0EF50FD4F958F80930A0301C028
:100B60008081FF91EF919F918F912F910F900BBEFC
:100B70000F900FBE0F901F9018951F920F920FB6F7
:100B80000F9211240F900FBE0F901F9018952F9267
:100B90003F924F925F926F927F928F929F92AF920D
:100BA000BF92CF92DF92EF92FF920F931F93CF935A
:100BB000DF9300D01F92CDB7DEB71C01FC01878404
:100BC0009088A188B28883859485A585B685881A82
:100BD000990AAA0ABB0A63897489858996899B0147
:100BE000AC010E941E116B017C01F101638D748DBB
:100BF000858D968D9B01AC010E944E0F9B01AC012F
:100C0000C701B6010E94BF0F0E94311081149104E8
:100C1000A104B104A1F462307105810591050CF0C5
:100C20007CC0F10113A214A215A216A2138A148A81
:100C3000158A168A13AA14AA15AA16AA03C1F101C5
:100C400003A914A925A936A9ED5BFF4F18141904AF
:100C50001A041B04FCF410161106120613064CF4B9
:100C6000681579058A059B054CF52081211155C031
:100C700025C0011511052105310509F44EC068157F
:100C800079058A059B050CF048C08081882309F40A
:100C900044C037C01016110612061306F4F40027DC
:100CA00011279801081919092A093B0960177107CA
:100CB000820793071CF42081222379F19B01AC0168
:100CC00088279927DC01821B930BA40BB50BF1013C
:100CD00083AB94ABA5ABB6AB20C0011511052105C4
:100CE0003105D9F0CC24DD247601C818D908EA08EA
:100CF000FB086C157D058E059F057CF480818111B4
:100D00000CC030952095109501951F4F2F4F3F4FE8
:100D1000F10103AB14AB25AB36ABF101C3A8D4A8EA
:100D2000E5A8F6A881010D5B1F4FC114D104E104B1
:100D3000F10491F487A990ADA1ADB2AD83AF94AFAA
:100D4000A5AFB6AF81E0181419041A041B040CF007
:100D500080E0F801808340C0F10183AC94ACA5AC85
:100D6000B6ACA5019401C501B4010E944E0F2B0140
:100D70003C01C701B6010E94691020E030E040E864
:100D800050E40E941E1120E030E040E85FE30E9442
:100D90004E0F9B01AC01C301B2010E94BF0F9B012A
:100DA000AC01C501B4010E944D0F4B015C01F10182
:100DB000FF9640805180628073809201A3010E945F
:100DC0001911181614F042015301A401B501F101E3
:100DD00043AF54AF65AF76AFFFEFCF1ADF0AEF0A2C
:100DE000FF0AF101C3AAD4AAE5AAF6AA23AD34AD3D
:100DF00045AD56ADCA01B90129833A834B835C8363
:100E00000E943810F10163A374A385A396A32981DE
:100E10003A814B815C8160E074E284E799E40E944E
:100E2000BF0FF101638B748B858B968BF80120814A
:100E3000211108C0DC01CB01B058F101838B948BE8
:100E4000A58BB68B0F900F900F900F90DF91CF91E5
:100E50001F910F91FF90EF90DF90CF90BF90AF90D8
:100E60009F908F907F906F905F904F903F902F90CA
:100E700008954F925F926F927F928F929F92AF925E
:100E8000BF92CF92DF92EF92FF92CF93DF93EC016C
:100E90006A017B018B8C9C8CAD8CBE8C9A01AB0162
:100EA000C501B4010E94BA0F882309F449C06BA997
:100EB0007CA98DA99EA90E9469102B013C01A70164
:100EC0009601C501B4010E94BF0F9B01AC01C30193
:100ED000B2010E941E110E9431106BAB7CAB8DAB36
:100EE0009EABA701960160E070E080E090E40E9474
:100EF000BF0F0E94911126E53EE04DE25FE30E94A4
:100F00001E1120E034E244E759E40E941E116FAB49
:100F100078AF89AF9AAFCB8EDC8EED8EFE8ECE0190
:100F2000DF91CF91FF90EF90DF90CF90BF90AF9087
:100F30009F908F907F906F905F904F900C94C7051B
:100F4000DF91CF91FF90EF90DF90CF90BF90AF9067
:100F50009F908F907F906F905F904F9008958F92A9
:100F60009F92AF92BF92CF92DF92EF92FF92CF9378
:100F7000DF93EC018B889C88AD88BE8820E030E050
:100F8000A901C501B4010E94BA0F882309F44FC01A
:100F9000A5019401C501B4010E941E116B017C01E1
:100FA0006B8D7C8D8D8D9E8D9B01AC010E944E0FB3
:100FB0009B01AC01C701B6010E94BF0F0E94311016
:100FC0006B017C012FEFC21AD20AE20AF20A20E07A
:100FD00030E0A901C501B4010E9419114B855C855F
:100FE0006D857E858F849888A988BA8818162CF418
:100FF0004C0D5D1D6E1D7F1D04C04C195D096E09F1
:101000007F0984169506A606B70689F04F87588B88
:10101000698B7A8BCE01DF91CF91FF90EF90DF90BB
:10102000CF90BF90AF909F908F900C94C705DF91A9
:10103000CF91FF90EF90DF90CF90BF90AF909F90B7
:101040008F900895CF92DF92EF92FF92CF93DF932C
:10105000EC018BA19CA1ADA1BEA1892B8A2B8B2B6E
:10106000F1F10E94940B6B017C018FA198A5A9A5B9
:10107000BAA5B701A601481B590B6A0B7B0B8BA1C4
:101080009CA1ADA1BEA1481759076A077B0738F19B
:10109000FE01ED5BFF4F20818B859C85AD85BE8574
:1010A000222321F00196A11DB11D03C00197A109C2
:1010B000B1098B879C87AD87BE87E881F9814B8515
:1010C0005C856D857E850680F781E02DCE011995C2
:1010D000CFA2D8A6E9A6FAA6CE010E94C70520E0B5
:1010E00030E0A9016B897C898D899E890E94BA0FA5
:1010F000811110C081E0CF84D888E988FA884B85B7
:101100005C856D857E85C416D506E606F70619F45E
:1011100080E001C081E0DF91CF91FF90EF90DF9000
:10112000CF9008951F920F920FB60F9211240BB615
:101130000F922F933F934F935F936F937F938F9370
:101140009F93AF93BF93EF93FF938091B900887FF4
:10115000803609F49CC068F5883209F45BC090F4CD
:10116000803109F454C038F4882309F4F6C088307B
:1011700009F44DC0F6C0883109F44CC0803209F43E
:101180005DC0EFC0803409F468C048F4803309F4CE
:1011900055C0883309F0E5C08093C702D8C08035B8
:1011A00009F44FC0883509F45DC0883409F0D9C00E
:1011B000D6C0883909F4C7C0A8F4883709F467C0D5
:1011C00038F4883609F463C0803709F460C0C9C0B8
:1011D000883809F4B8C0803909F45FC0803809F054
:1011E000C0C05BC0803B09F486C038F4803A09F483
:1011F00066C0883A09F47FC0B4C0803C09F4A7C037
:10120000883C09F4A4C0883B09F48AC0AAC0809134
:10121000ED0210C09091EC028091EB02981770F5EE
:10122000E091EC0281E08E0F8093EC02F0E0E55358
:10123000FD4F80818093BB0085EC86C08093C70200
:101240008EC0E091EC0281E08E0F8093EC028091E1
:10125000BB00F0E0E553FD4F80839091EC0280915C
:10126000EB026EC0E091EC0281E08E0F8093EC0205
:101270008091BB00F0E0E553FD4F80838091CA026E
:1012800081116DC081E08093C90284EA61C083E06E
:101290008093C8021092C602CFCF8091C6028032DE
:1012A00008F051C0E091C60281E08E0F8093C60223
:1012B0008091BB00F0E0EA55FD4F8083BDCF85EC07
:1012C0008093BC001092C8028091C602803230F434
:1012D000E091C602F0E0EA55FD4F10826091C6022F
:1012E00070E0E091A402F091A50286EA92E01995DF
:1012F0001092C60236C084E08093C8021092A30206
:101300001092A202E091A002F091A10219958091A1
:10131000A202811105C081E08093A2021092800296
:10132000E091A30281E08E0F8093A302F0E0E058E9
:10133000FD4F80818093BB009091A3028091A20217
:10134000981708F479CF85E88093BC000AC085EC33
:101350008093BC001092C80204C01092C7020E9481
:101360007504FF91EF91BF91AF919F918F917F9104
:101370006F915F914F913F912F910F900BBE0F9006
:101380000FBE0F901F901895CF92DF92EF92FF92B1
:101390000F931F93CF93DF936C017A018B01C0E011
:1013A000D0E0CE15DF0589F0D8016D918D01D60111
:1013B000ED91FC910190F081E02DC6011995892BEA
:1013C00011F47E0102C02196ECCFC701DF91CF91CD
:1013D0001F910F91FF90EF90DF90CF900895CF92E3
:1013E000DF92EF92FF92CF93DF93EC0120E030E0A9
:1013F0004AE754E46F89788D898D9A8D0E94BA0FDF
:101400008823F1F180E090E0AAE7B4E48F8B988F15
:10141000A98FBA8FFE01FF9680839183A283B38345
:101420008BA99CA9ADA9BEA9181619061A061B06F8
:101430003CF56B897C898D899E899B01AC010E945A
:101440001E116B017C016B8D7C8D8D8D9E8D9B01A2
:10145000AC010E944E0F9B01AC01C701B6010E9476
:10146000BF0F0E9431106BAB7CAB8DAB9EABCE013E
:10147000DF91CF91FF90EF90DF90CF900C94C70554
:10148000DF91CF91FF90EF90DF90CF90089500977C
:1014900069F0FC0101900020E9F73197AF01481B8A
:1014A000590BBC0181EF92E00C94C40980E090E0FC
:1014B00008958F929F92AF92BF92CF92DF92EF9258
:1014C000FF920F931F93CF93DF93CDB7DEB7A19712
:1014D0000FB6F894DEBF0FBECDBF6B017C0197FF46
:1014E00031C0E091F102F091F2020190F081E02D23
:1014F0006DE281EF92E019958C0122273327A90133
:101500002C193D094E095F0919A2CE0181967C0173
:101510009AE0892E912CA12CB12CCA01B901A50108
:1015200094010E94040F605DF70162937F01211511
:1015300031054105510589F7CF010E94470A800F07
:10154000911F1DC09B01AC0119A28E010F5D1F4FA1
:101550008AE0C82ED12CE12CF12CCA01B901A701D7
:1015600096010E94040F605DF80162938F012115BE
:1015700031054105510589F7CF010E94470AA1961F
:101580000FB6F894DEBF0FBECDBFDF91CF911F9194
:101590000F91FF90EF90DF90CF90BF90AF909F9012
:1015A0008F90089590E0FC013197E231F10508F049
:1015B0004EC08827EE57FF4F8F4F0C94450F8091F8
:1015C00080008F7703C0809180008F7D80938000A2
:1015D000089580918000877FF9CF84B58F7702C00E
:1015E00084B58F7D84BD08958091B0008F7703C04E
:1015F0008091B0008F7D8093B0000895809190001D
:101600008F7707C0809190008F7D03C080919000FC
:10161000877F8093900008958091A0008F7707C006
:101620008091A0008F7D03C08091A000877F809370
:10163000A0000895809120018F7707C0809120013C
:101640008F7D03C080912001877F809320010895C2
:101650001F93CF93DF93282F30E0F901EE51FD4F18
:101660008491F901E456FD4FD491F901EA5AFD4FF6
:10167000C491CC23C9F0162F81110E94D20AEC2FFD
:10168000F0E0EE0FFF1FE45CFD4FA591B4918FB722
:10169000F894111105C09C91ED2FE095E92302C04B
:1016A000EC91ED2BEC938FBFDF91CF911F910895BB
:1016B000CF93DF9390E0FC01E456FD4F2491FC01B1
:1016C000EA5AFD4F8491882361F190E0880F991FB9
:1016D000FC01EE5DFD4FC591D491FC01E45CFD4F32
:1016E000A591B491611109C09FB7F89488812095A4
:1016F00082238883EC912E230BC0623061F49FB764
:10170000F8943881822F809583238883EC912E2B47
:101710002C939FBF06C08FB7F894E8812E2B2883A7
:101720008FBFDF91CF9108953FB7F89480911B044C
:1017300090911C04A0911D04B0911E0426B5A89B95
:1017400005C02F3F19F00196A11DB11D3FBFBA2F53
:10175000A92F982F8827820F911DA11DB11DBC01B3
:10176000CD0142E0660F771F881F991F4A95D1F778
:1017700008958F929F92AF92BF92CF92DF92EF9295
:10178000FF920E94940B4B015C0184E1C82ED12C86
:10179000E12CF12C0E94940BDC01CB0188199909F2
:1017A000AA09BB09883E9340A105B10558F021E084
:1017B000C21AD108E108F10888EE880E83E0981E6D
:1017C000A11CB11CC114D104E104F10419F7FF906C
:1017D000EF90DF90CF90BF90AF909F908F90089543
:1017E0001F920F920FB60F9211242F933F938F9356
:1017F0009F93AF93BF938091170490911804A09189
:101800001904B0911A043091160423E0230F2D37E8
:1018100020F40196A11DB11D05C026E8230F0296F4
:10182000A11DB11D209316048093170490931804F2
:10183000A0931904B0931A0480911B0490911C0486
:10184000A0911D04B0911E040196A11DB11D8093AD
:101850001B0490931C04A0931D04B0931E04BF911D
:10186000AF919F918F913F912F910F900FBE0F904D
:101870001F901895789484B5826084BD84B581608A
:1018800084BD85B5826085BD85B5816085BD80914B
:101890006E00816080936E001092810080918100C3
:1018A00082608093810080918100816080938100BB
:1018B000809180008160809380008091B10084607D
:1018C0008093B1008091B00081608093B0008091DE
:1018D000910082608093910080919100816080935B
:1018E0009100809190008160809390008091A10090
:1018F00082608093A1008091A10081608093A1000B
:101900008091A00081608093A0008091210182607D
:101910008093210180912101816080932101809138
:10192000200181608093200180917A0084608093FF
:101930007A0080917A00826080937A0080917A00A8
:10194000816080937A0080917A00806880937A0029
:101950001092C10085B5887F85BD85B5816085BD44
:1019600080919100887F80939100809191008160A7
:101970008093910060E087E10E94580B60E086E16F
:101980000E94580B60E08AE10E94580B60E08BE1F6
:101990000E94580BE0910103F091020382E08083E2
:1019A000E091FD02F091FE021082E091FF02F091C1
:1019B000000380E1808310920903E0910503F09118
:1019C000060386E08083E0910303F09104038081A5
:1019D00080618083E0910303F0910403808188603B
:1019E0008083E0910303F091040380818068808309
:1019F000E0910303F091040380818F7D808382ED69
:101A000093E00E94EF0940E050E068E473E482ED67
:101A100093E00E9439071092DD031092DE031092CA
:101A2000DF031092E0031092E1031092E2031092A0
:101A3000E3031092E403109205041092060410923E
:101A40000704109208041092F5031092F603109206
:101A5000F7031092F8031092E5031092E603109238
:101A6000E7031092E8038EE893E00E94EF0940E05C
:101A700050E068E473E48EE893E00E943907109226
:101A8000990310929A0310929B0310929C03109258
:101A90009D0310929E0310929F031092A003109238
:101AA000C1031092C2031092C3031092C403109298
:101AB000B1031092B2031092B3031092B4031092C8
:101AC000A1031092A2031092A3031092A403C9EFE2
:101AD000D2E003EB12E03DE6E32E32E0F32E40E7E6
:101AE000842E40EA942E4EEFA42EBB24BA94FE011D
:101AF0008491F801C490F701D490DD2021F1811187
:101B00000E94D20A8D2D90E0880F991F885F9D4F0B
:101B1000FC01A591B4918C91C822A9F082ED93E0CB
:101B20000E94AF078EE893E00E94AF0781E792E042
:101B30000E94470A8EE692E00E94470A0E94B90B73
:101B40000E948A02D4CF80919D0390919E03A09120
:101B50009F03B091A0038037904AAE4FBF4F61F012
:101B600080929D0390929E03A0929F03B092A00347
:101B70008EE893E00E94C7058EE893E00E94CF04B0
:101B80008091E1039091E203A091E303B091E4031B
:101B90008037904AAE4FBF4F61F08092E103909240
:101BA000E203A092E303B092E40382ED93E00E948B
:101BB000C70582ED93E00E94CF0482ED93E00E947E
:101BC00022088EE893E00E9422088AE392E00E94B5
:101BD000470A6091DD037091DE038091DF039091ED
:101BE000E0030E94590A8CE692E00E94470A609145
:101BF000990370919A0380919B0390919C030E949A
:101C0000590A98CF8F929F92AF92BF92CF92DF9254
:101C1000EF92FF920F931F93CF93DF93E1EFF2E0E8
:101C20001382128288EE93E0A0E0B0E08483958373
:101C3000A683B78324E032E03183208325EC30E0B3
:101C40003587248724EC30E03787268720EC30E086
:101C5000318B208B21EC30E0338B228B22EC30E077
:101C6000358B248B26EC30E0378B268B118E128E31
:101C7000138E148EEFE1F4E0138212828483958335
:101C8000A683B78384E192E091838083E2EDF3E061
:101C900004E212E0118300838824839482821386F5
:101CA0001486158616861786108A118A128A138A58
:101CB000148A158A168AC12CD12C80E8E82E8FE36D
:101CC000F82EC78AD08EE18EF28E138E148E158E6A
:101CD000168EC78ED0A2E1A2F2A213A214A215A260
:101CE00016A2C1E0D0E0D4A7C3A799249A9496A6DF
:101CF00017A210A611A612A694E0A92EA38288E12D
:101D00008483A58225E0B22EB68213AA14AA15AA4E
:101D100016AA17AA10AE11AE12AE13AE14AE15AEBF
:101D200016AEC0921104D0921204E0921304F09205
:101D30001404109215041782108611861286CF01A2
:101D40000E94CF04B701A60182ED93E00E943907FB
:101D5000EEE8F3E0118300838282138614861586F1
:101D600016861786108A118A128A138A148A158A8F
:101D7000168AC78AD08EE18EF28E138E148E158E3F
:101D8000168EC78ED0A2E1A2F2A213A214A215A2AF
:101D900016A2D4A7C3A796A617A210A611A612A68C
:101DA000B38289E18483A582B68213AA14AA15AAF4
:101DB00016AA17AA10AE11AE12AE13AE14AE15AE1F
:101DC00016AEC092CD03D092CE03E092CF03F09234
:101DD000D0031092D1031782108611861286CF018C
:101DE0000E94CF04B701A6018EE893E0DF91CF9166
:101DF0001F910F91FF90EF90DF90CF90BF90AF9029
:101E00009F908F900C943907A1E21A2EAA1BBB1B3E
:101E1000FD010DC0AA1FBB1FEE1FFF1FA217B307B6
:101E2000E407F50720F0A21BB30BE40BF50B661FCC
:101E3000771F881F991F1A9469F760957095809590
:101E400090959B01AC01BD01CF010895052E97FB34
:101E50001EF400940E943D0F57FD07D00E94040F0E
:101E600007FC03D04EF40C943D0F509540953095EF
:101E700021953F4F4F4F5F4F0895909580957095F6
:101E800061957F4F8F4F9F4F0895EE0FFF1F881F63
:101E90008BBF0790F691E02D19945058BB27AA27C5
:101EA0000E94650F0C94DF100E94D11038F00E9440
:101EB000D81020F039F49F3F19F426F40C94CE107A
:101EC0000EF4E095E7FB0C94C810E92F0E94F01087
:101ED00058F3BA17620773078407950720F079F45F
:101EE000A6F50C9412110EF4E0950B2EBA2FA02D2E
:101EF0000B01B90190010C01CA01A0011124FF27B7
:101F0000591B99F0593F50F4503E68F11A16F040B1
:101F1000A22F232F342F4427585FF3CF46953795B0
:101F20002795A795F0405395C9F77EF41F16BA0B75
:101F3000620B730B840BBAF09150A1F0FF0FBB1F23
:101F4000661F771F881FC2F70EC0BA0F621F731F6C
:101F5000841F48F4879577956795B795F7959E3FC9
:101F600008F0B0CF9395880F08F09927EE0F97955A
:101F7000879508950E94A41008F481E008950E94B6
:101F8000D30F0C94DF100E94D81058F00E94D1108B
:101F900040F029F45F3F29F00C94C81051110C94C3
:101FA00013110C94CE100E94F01068F39923B1F332
:101FB000552391F3951B550BBB27AA27621773076F
:101FC000840738F09F5F5F4F220F331F441FAA1F03
:101FD000A9F335D00E2E3AF0E0E832D091505040BF
:101FE000E695001CCAF72BD0FE2F29D0660F771F6D
:101FF000881FBB1F261737074807AB07B0E809F053
:10200000BB0B802DBF01FF2793585F4F3AF09E3FD7
:10201000510578F00C94C8100C9413115F3FE4F351
:10202000983ED4F3869577956795B795F7959F5F1A
:10203000C9F7880F911D9695879597F90895E1E066
:10204000660F771F881FBB1F621773078407BA07C5
:1020500020F0621B730B840BBA0BEE1F88F7E09520
:1020600008950E9438106894B1110C9413110895CA
:102070000E94F81088F09F5798F0B92F9927B75110
:10208000B0F0E1F0660F771F881F991F1AF0BA951C
:10209000C9F714C0B13091F00E941211B1E0089557
:1020A0000C941211672F782F8827B85F39F0B93F49
:1020B000CCF3869577956795B395D9F73EF49095CF
:1020C0008095709561957F4F8F4F9F4F0895E8944D
:1020D00009C097FB3EF490958095709561957F4F70
:1020E0008F4F9F4F9923A9F0F92F96E9BB2793951E
:1020F000F695879577956795B795F111F8CFFAF42E
:10210000BB0F11F460FF1BC06F5F7F4F8F4F9F4F5E
:1021100016C0882311F096E911C0772321F09EE8BC
:10212000872F762F05C0662371F096E8862F70E022
:1021300060E02AF09A95660F771F881FDAF7880FFC
:102140009695879597F90895990F0008550FAA0B52
:10215000E0E8FEEF16161706E807F907C0F01216BA
:102160001306E407F50798F0621B730B840B950BBD
:1021700039F40A2661F0232B242B252B21F4089512
:102180000A2609F4A140A6958FEF811D811D0895AF
:1021900097F99F6780E870E060E008959FEF80EC1A
:1021A000089500240A9416161706180609060895BD
:1021B00000240A9412161306140605060895092E23
:1021C0000394000C11F4882352F0BB0F40F4BF2B92
:1021D00011F460FF04C06F5F7F4F8F4F9F4F0895D2
:1021E00057FD9058440F551F59F05F3F71F04795C8
:1021F000880F97FB991F61F09F3F79F087950895AD
:10220000121613061406551FF2CF4695F1DF08C0CB
:10221000161617061806991FF1CF869571056105E8
:1022200008940895E894BB2766277727CB0197F990
:1022300008950E94A41008F48FEF08950E943111B0
:102240000C94DF100E94D11038F00E94D81020F0BA
:10225000952311F00C94C8100C94CE1011240C94FA
:1022600013110E94F01070F3959FC1F3950F50E089
:10227000551F629FF001729FBB27F00DB11D639F38
:10228000AA27F00DB11DAA1F649F6627B00DA11DDE
:10229000661F829F2227B00DA11D621F739FB00D84
:1022A000A11D621F839FA00D611D221F749F3327F4
:1022B000A00D611D231F849F600D211D822F762F8D
:1022C0006A2F11249F5750409AF0F1F088234AF06A
:1022D000EE0FFF1FBB1F661F771F881F91505040D6
:1022E000A9F79E3F510580F00C94C8100C9413116F
:1022F0005F3FE4F3983ED4F3869577956795B7955D
:10230000F795E7959F5FC1F7FE2B880F911D969576
:10231000879597F9089519F416F40C94CE100C943F
:10232000D1110E94F810B8F39923C9F3B6F39F575F
:10233000550B87FF0E94DF110024A0E640EA9001C0
:1023400080585695979528F4805C660F771F881FF4
:1023500020F026173707480730F4621B730B840BF5
:10236000202931294A2BA695179407942025312539
:102370004A2758F7660F771F881F20F02617370760
:10238000480730F4620B730B840B200D311D411D87
:10239000A09581F7B901842F9158880F969587955C
:1023A00008959F3F31F0915020F487957795679578
:1023B000B795880F911D9695879597F90895915037
:1023C0005040660F771F881FD2F7089581E090E094
:0A23D000F8940C94EB11F894FFCF81
:1023DA00000000002102C409EA01C801DC01680208
:1023EA0000000000BC04A7046E046B0468046704C0
:1023FA00000000000305CF0421051F040904C703D8
:10240A00A60372035103FB02C30254686520706F6E
:10241A00736974696F6E206F6620746865207665CB
:10242A0072746963616C20616E6420686F72697A84
:10243A006F6E74616C206D6F746F723A20000A0DB2
:10244A00004D6F746F722053746F70706564210051
:00000001FF
